{
  "_format": "hh-sol-artifact-1",
  "contractName": "CollectionBeelieve",
  "sourceName": "contracts/CollectionBeelieve.sol",
  "abi": [
    {
      "inputs": [],
      "stateMutability": "nonpayable",
      "type": "constructor"
    },
    {
      "anonymous": false,
      "inputs": [
        {
          "indexed": false,
          "internalType": "uint256",
          "name": "_id",
          "type": "uint256"
        },
        {
          "indexed": false,
          "internalType": "uint256",
          "name": "_types",
          "type": "uint256"
        },
        {
          "indexed": false,
          "internalType": "uint256",
          "name": "_index",
          "type": "uint256"
        },
        {
          "indexed": false,
          "internalType": "string",
          "name": "_mgUrl",
          "type": "string"
        },
        {
          "indexed": false,
          "internalType": "string",
          "name": "_picture",
          "type": "string"
        },
        {
          "indexed": false,
          "internalType": "address",
          "name": "_ownerId",
          "type": "address"
        },
        {
          "indexed": false,
          "internalType": "bool",
          "name": "_isActive",
          "type": "bool"
        }
      ],
      "name": "creatNewPiece",
      "type": "event"
    },
    {
      "anonymous": false,
      "inputs": [
        {
          "indexed": false,
          "internalType": "uint256",
          "name": "_id",
          "type": "uint256"
        },
        {
          "indexed": false,
          "internalType": "address",
          "name": "seller",
          "type": "address"
        },
        {
          "indexed": false,
          "internalType": "address",
          "name": "buyer",
          "type": "address"
        },
        {
          "indexed": false,
          "internalType": "uint256",
          "name": "price",
          "type": "uint256"
        }
      ],
      "name": "exchangePiece",
      "type": "event"
    },
    {
      "anonymous": false,
      "inputs": [
        {
          "indexed": false,
          "internalType": "uint256",
          "name": "_id",
          "type": "uint256"
        },
        {
          "indexed": false,
          "internalType": "uint256",
          "name": "_index",
          "type": "uint256"
        },
        {
          "indexed": false,
          "internalType": "string",
          "name": "_imgUrl",
          "type": "string"
        },
        {
          "indexed": false,
          "internalType": "string",
          "name": "_picture",
          "type": "string"
        }
      ],
      "name": "giveRandomPieceEvent",
      "type": "event"
    },
    {
      "anonymous": false,
      "inputs": [
        {
          "indexed": false,
          "internalType": "uint256",
          "name": "_id",
          "type": "uint256"
        },
        {
          "indexed": false,
          "internalType": "uint256",
          "name": "_price",
          "type": "uint256"
        }
      ],
      "name": "sellPieceEvent",
      "type": "event"
    },
    {
      "anonymous": false,
      "inputs": [
        {
          "indexed": false,
          "internalType": "string",
          "name": "_picture",
          "type": "string"
        },
        {
          "indexed": false,
          "internalType": "address",
          "name": "_address",
          "type": "address"
        }
      ],
      "name": "upgradeNFTBigEvent",
      "type": "event"
    },
    {
      "inputs": [
        {
          "internalType": "string",
          "name": "",
          "type": "string"
        }
      ],
      "name": "PieceSpecial",
      "outputs": [
        {
          "internalType": "uint256",
          "name": "",
          "type": "uint256"
        }
      ],
      "stateMutability": "view",
      "type": "function"
    },
    {
      "inputs": [],
      "name": "all",
      "outputs": [
        {
          "internalType": "uint256",
          "name": "",
          "type": "uint256"
        }
      ],
      "stateMutability": "view",
      "type": "function"
    },
    {
      "inputs": [
        {
          "internalType": "uint256",
          "name": "",
          "type": "uint256"
        }
      ],
      "name": "allPiece",
      "outputs": [
        {
          "internalType": "uint256",
          "name": "id",
          "type": "uint256"
        },
        {
          "internalType": "uint256",
          "name": "types",
          "type": "uint256"
        },
        {
          "internalType": "uint256",
          "name": "index",
          "type": "uint256"
        },
        {
          "internalType": "string",
          "name": "imgUrl",
          "type": "string"
        },
        {
          "internalType": "string",
          "name": "picture",
          "type": "string"
        },
        {
          "internalType": "address",
          "name": "ownerId",
          "type": "address"
        },
        {
          "internalType": "bool",
          "name": "isActive",
          "type": "bool"
        }
      ],
      "stateMutability": "view",
      "type": "function"
    },
    {
      "inputs": [
        {
          "internalType": "uint256",
          "name": "_id",
          "type": "uint256"
        },
        {
          "internalType": "uint256",
          "name": "_price",
          "type": "uint256"
        }
      ],
      "name": "buyPiece",
      "outputs": [],
      "stateMutability": "payable",
      "type": "function"
    },
    {
      "inputs": [
        {
          "internalType": "uint256",
          "name": "_types",
          "type": "uint256"
        },
        {
          "internalType": "string",
          "name": "_imgUrl",
          "type": "string"
        },
        {
          "internalType": "string",
          "name": "_picture",
          "type": "string"
        },
        {
          "internalType": "uint256",
          "name": "_index",
          "type": "uint256"
        }
      ],
      "name": "createPiece",
      "outputs": [],
      "stateMutability": "nonpayable",
      "type": "function"
    },
    {
      "inputs": [
        {
          "internalType": "address",
          "name": "_address",
          "type": "address"
        }
      ],
      "name": "getAllPieceByAddress",
      "outputs": [
        {
          "components": [
            {
              "internalType": "uint256",
              "name": "id",
              "type": "uint256"
            },
            {
              "internalType": "uint256",
              "name": "types",
              "type": "uint256"
            },
            {
              "internalType": "uint256",
              "name": "index",
              "type": "uint256"
            },
            {
              "internalType": "string",
              "name": "imgUrl",
              "type": "string"
            },
            {
              "internalType": "string",
              "name": "picture",
              "type": "string"
            },
            {
              "internalType": "address",
              "name": "ownerId",
              "type": "address"
            },
            {
              "internalType": "bool",
              "name": "isActive",
              "type": "bool"
            }
          ],
          "internalType": "struct CollectionBeelieve.Piece[]",
          "name": "",
          "type": "tuple[]"
        }
      ],
      "stateMutability": "view",
      "type": "function"
    },
    {
      "inputs": [],
      "name": "getAllPieceForSale",
      "outputs": [
        {
          "components": [
            {
              "internalType": "uint256",
              "name": "id",
              "type": "uint256"
            },
            {
              "internalType": "uint256",
              "name": "types",
              "type": "uint256"
            },
            {
              "internalType": "uint256",
              "name": "index",
              "type": "uint256"
            },
            {
              "internalType": "string",
              "name": "imgUrl",
              "type": "string"
            },
            {
              "internalType": "string",
              "name": "picture",
              "type": "string"
            },
            {
              "internalType": "address",
              "name": "ownerId",
              "type": "address"
            },
            {
              "internalType": "bool",
              "name": "isActive",
              "type": "bool"
            }
          ],
          "internalType": "struct CollectionBeelieve.Piece[]",
          "name": "",
          "type": "tuple[]"
        },
        {
          "internalType": "uint256[]",
          "name": "_price",
          "type": "uint256[]"
        }
      ],
      "stateMutability": "view",
      "type": "function"
    },
    {
      "inputs": [],
      "name": "giveRandomPiece",
      "outputs": [],
      "stateMutability": "nonpayable",
      "type": "function"
    },
    {
      "inputs": [
        {
          "internalType": "uint256",
          "name": "",
          "type": "uint256"
        }
      ],
      "name": "idForPrice",
      "outputs": [
        {
          "internalType": "uint256",
          "name": "",
          "type": "uint256"
        }
      ],
      "stateMutability": "view",
      "type": "function"
    },
    {
      "inputs": [
        {
          "internalType": "uint256",
          "name": "",
          "type": "uint256"
        }
      ],
      "name": "idForSale",
      "outputs": [
        {
          "internalType": "bool",
          "name": "",
          "type": "bool"
        }
      ],
      "stateMutability": "view",
      "type": "function"
    },
    {
      "inputs": [
        {
          "internalType": "address",
          "name": "",
          "type": "address"
        }
      ],
      "name": "ownerByAddressCount",
      "outputs": [
        {
          "internalType": "uint256",
          "name": "",
          "type": "uint256"
        }
      ],
      "stateMutability": "view",
      "type": "function"
    },
    {
      "inputs": [
        {
          "internalType": "uint256",
          "name": "_id",
          "type": "uint256"
        },
        {
          "internalType": "uint256",
          "name": "_price",
          "type": "uint256"
        }
      ],
      "name": "sellPiece",
      "outputs": [],
      "stateMutability": "nonpayable",
      "type": "function"
    },
    {
      "inputs": [
        {
          "internalType": "string",
          "name": "_picture",
          "type": "string"
        },
        {
          "internalType": "address",
          "name": "_address",
          "type": "address"
        }
      ],
      "name": "upgradeNFTBig",
      "outputs": [],
      "stateMutability": "nonpayable",
      "type": "function"
    }
  ],
  "bytecode": "0x608060405234801561001057600080fd5b50336000806101000a81548173ffffffffffffffffffffffffffffffffffffffff021916908373ffffffffffffffffffffffffffffffffffffffff16021790555061376b806100606000396000f3fe6080604052600436106100c25760003560e01c80636a5cee901161007f5780639c97e43d116100595780639c97e43d14610257578063a310baa41461029a578063ee21adff146102d7578063f56534e114610303576100c2565b80636a5cee90146101c8578063805e61e6146101f1578063988164061461022e576100c2565b80630d9572be146100c75780630fd26406146100de57806310c4e8b0146100fa5780631ee3a6431461012557806322856dc6146101625780634283ae0c1461018b575b600080fd5b3480156100d357600080fd5b506100dc610340565b005b6100f860048036038101906100f39190612809565b610b85565b005b34801561010657600080fd5b5061010f610f36565b60405161011c9190612f15565b60405180910390f35b34801561013157600080fd5b5061014c600480360381019061014791906126b8565b610f43565b6040516101599190612f15565b60405180910390f35b34801561016e57600080fd5b5061018960048036038101906101849190612776565b610f71565b005b34801561019757600080fd5b506101b260048036038101906101ad919061274d565b611363565b6040516101bf9190612daa565b60405180910390f35b3480156101d457600080fd5b506101ef60048036038101906101ea91906126f9565b611383565b005b3480156101fd57600080fd5b506102186004803603810190610213919061268f565b6119d4565b6040516102259190612d51565b60405180910390f35b34801561023a57600080fd5b5061025560048036038101906102509190612809565b611d59565b005b34801561026357600080fd5b5061027e6004803603810190610279919061274d565b611ed9565b6040516102919796959493929190612ff1565b60405180910390f35b3480156102a657600080fd5b506102c160048036038101906102bc919061274d565b612058565b6040516102ce9190612f15565b60405180910390f35b3480156102e357600080fd5b506102ec612070565b6040516102fa929190612d73565b60405180910390f35b34801561030f57600080fd5b5061032a6004803603810190610325919061268f565b6124ed565b6040516103379190612f15565b60405180910390f35b6000600460008060009054906101000a900473ffffffffffffffffffffffffffffffffffffffff1673ffffffffffffffffffffffffffffffffffffffff1673ffffffffffffffffffffffffffffffffffffffff16815260200190815260200160002054116103e3576040517f08c379a00000000000000000000000000000000000000000000000000000000081526004016103da90612ed5565b60405180910390fd5b6000600460008060009054906101000a900473ffffffffffffffffffffffffffffffffffffffff1673ffffffffffffffffffffffffffffffffffffffff1673ffffffffffffffffffffffffffffffffffffffff1681526020019081526020016000205467ffffffffffffffff811115610485577f4e487b7100000000000000000000000000000000000000000000000000000000600052604160045260246000fd5b6040519080825280602002602001820160405280156104b35781602001602082028036833780820191505090505b5090506000805b6001805490508110156107b657600060018281548110610503577f4e487b7100000000000000000000000000000000000000000000000000000000600052603260045260246000fd5b90600052602060002090600602016040518060e001604052908160008201548152602001600182015481526020016002820154815260200160038201805461054a9061335b565b80601f01602080910402602001604051908101604052809291908181526020018280546105769061335b565b80156105c35780601f10610598576101008083540402835291602001916105c3565b820191906000526020600020905b8154815290600101906020018083116105a657829003601f168201915b505050505081526020016004820180546105dc9061335b565b80601f01602080910402602001604051908101604052809291908181526020018280546106089061335b565b80156106555780601f1061062a57610100808354040283529160200191610655565b820191906000526020600020905b81548152906001019060200180831161063857829003601f168201915b505050505081526020016005820160009054906101000a900473ffffffffffffffffffffffffffffffffffffffff1673ffffffffffffffffffffffffffffffffffffffff1673ffffffffffffffffffffffffffffffffffffffff1681526020016005820160149054906101000a900460ff161515151581525050905060008054906101000a900473ffffffffffffffffffffffffffffffffffffffff1673ffffffffffffffffffffffffffffffffffffffff168160a0015173ffffffffffffffffffffffffffffffffffffffff16148015610734575060008160200151145b80156107485750600115158160c001511515145b156107a25781848481518110610787577f4e487b7100000000000000000000000000000000000000000000000000000000600052603260045260246000fd5b602002602001018181525050828061079e906133be565b9350505b5080806107ae906133be565b9150506104ba565b50600081116107fa576040517f08c379a00000000000000000000000000000000000000000000000000000000081526004016107f190612e75565b60405180910390fd5b60006001826108099190613233565b90505b600081111561098f5760006001826108249190613183565b426001436108329190613233565b40604051602001610844929190612d25565b6040516020818303038152906040528051906020012060001c610867919061343f565b905060008483815181106108a4577f4e487b7100000000000000000000000000000000000000000000000000000000600052603260045260246000fd5b602002602001015190508482815181106108e7577f4e487b7100000000000000000000000000000000000000000000000000000000600052603260045260246000fd5b6020026020010151858481518110610928577f4e487b7100000000000000000000000000000000000000000000000000000000600052603260045260246000fd5b6020026020010181815250508085838151811061096e577f4e487b7100000000000000000000000000000000000000000000000000000000600052603260045260246000fd5b6020026020010181815250505050808061098790613331565b91505061080c565b506000826000815181106109cc577f4e487b7100000000000000000000000000000000000000000000000000000000600052603260045260246000fd5b60200260200101519050600060018281548110610a12577f4e487b7100000000000000000000000000000000000000000000000000000000600052603260045260246000fd5b90600052602060002090600602019050338160050160006101000a81548173ffffffffffffffffffffffffffffffffffffffff021916908373ffffffffffffffffffffffffffffffffffffffff1602179055506001600460003373ffffffffffffffffffffffffffffffffffffffff1673ffffffffffffffffffffffffffffffffffffffff1681526020019081526020016000206000828254610ab59190613183565b925050819055506001600460008060009054906101000a900473ffffffffffffffffffffffffffffffffffffffff1673ffffffffffffffffffffffffffffffffffffffff1673ffffffffffffffffffffffffffffffffffffffff1681526020019081526020016000206000828254610b2d9190613233565b925050819055507f4102cc65af09563d295b682142e8d5aea4f5f1e36b3015d44352c46a19f407e4816000015482600201548360030184600401604051610b779493929190612f9e565b60405180910390a150505050565b6005600083815260200190815260200160002060009054906101000a900460ff16610be5576040517f08c379a0000000000000000000000000000000000000000000000000000000008152600401610bdc90612e95565b60405180910390fd5b600060018084610bf59190613233565b81548110610c2c577f4e487b7100000000000000000000000000000000000000000000000000000000600052603260045260246000fd5b906000526020600020906006020160050160009054906101000a900473ffffffffffffffffffffffffffffffffffffffff1690503373ffffffffffffffffffffffffffffffffffffffff168173ffffffffffffffffffffffffffffffffffffffff161415610ccf576040517f08c379a0000000000000000000000000000000000000000000000000000000008152600401610cc690612eb5565b60405180910390fd5b6000670de0b6b3a76400006006600086815260200190815260200160002054610cf891906131d9565b905080341015610d3d576040517f08c379a0000000000000000000000000000000000000000000000000000000008152600401610d3490612e15565b60405180910390fd5b60006005600086815260200190815260200160002060006101000a81548160ff0219169083151502179055503360018086610d789190613233565b81548110610daf577f4e487b7100000000000000000000000000000000000000000000000000000000600052603260045260246000fd5b906000526020600020906006020160050160006101000a81548173ffffffffffffffffffffffffffffffffffffffff021916908373ffffffffffffffffffffffffffffffffffffffff1602179055508173ffffffffffffffffffffffffffffffffffffffff166108fc829081150290604051600060405180830381858888f19350505050158015610e44573d6000803e3d6000fd5b506001600460003373ffffffffffffffffffffffffffffffffffffffff1673ffffffffffffffffffffffffffffffffffffffff1681526020019081526020016000206000828254610e959190613183565b925050819055506001600460008473ffffffffffffffffffffffffffffffffffffffff1673ffffffffffffffffffffffffffffffffffffffff1681526020019081526020016000206000828254610eec9190613233565b925050819055507f355dbb1dd959696e756b63d1622cb2ba9da0825700654f97aab91916948f0e8284833384604051610f289493929190612f30565b60405180910390a150505050565b6000600180549050905090565b6003818051602081018201805184825260208301602085012081835280955050505050506000915090505481565b60008054906101000a900473ffffffffffffffffffffffffffffffffffffffff1673ffffffffffffffffffffffffffffffffffffffff163373ffffffffffffffffffffffffffffffffffffffff1614610fff576040517f08c379a0000000000000000000000000000000000000000000000000000000008152600401610ff690612e35565b60405180910390fd5b6000600180805490506110129190613183565b905060006040518060e0016040528083815260200187815260200184815260200186815260200185815260200160008054906101000a900473ffffffffffffffffffffffffffffffffffffffff1673ffffffffffffffffffffffffffffffffffffffff168152602001600115158152509050600181908060018154018082558091505060019003906000526020600020906006020160009091909190915060008201518160000155602082015181600101556040820151816002015560608201518160030190805190602001906110ea929190612505565b506080820151816004019080519060200190611107929190612505565b5060a08201518160050160006101000a81548173ffffffffffffffffffffffffffffffffffffffff021916908373ffffffffffffffffffffffffffffffffffffffff16021790555060c08201518160050160146101000a81548160ff0219169083151502179055505050806002600084815260200190815260200160002060008201518160000155602082015181600101556040820151816002015560608201518160030190805190602001906111bf929190612505565b5060808201518160040190805190602001906111dc929190612505565b5060a08201518160050160006101000a81548173ffffffffffffffffffffffffffffffffffffffff021916908373ffffffffffffffffffffffffffffffffffffffff16021790555060c08201518160050160146101000a81548160ff02191690831515021790555090505060006005600084815260200190815260200160002060006101000a81548160ff02191690831515021790555060018614156112a0578160038560405161128d9190612d0e565b9081526020016040518091039020819055505b6001600460003373ffffffffffffffffffffffffffffffffffffffff1673ffffffffffffffffffffffffffffffffffffffff16815260200190815260200160002060008282546112f09190613183565b925050819055507f832da373baee26bfe9548c07bbd05d8988389070315f8d124c27a9ae5ab1f3ed828785888860008054906101000a900473ffffffffffffffffffffffffffffffffffffffff1660016040516113539796959493929190612ff1565b60405180910390a1505050505050565b60056020528060005260406000206000915054906101000a900460ff1681565b806040516020016113949190612cf3565b60405160208183030381529060405280519060200120336040516020016113bb9190612cf3565b6040516020818303038152906040528051906020012014611411576040517f08c379a000000000000000000000000000000000000000000000000000000000815260040161140890612ef5565b60405180910390fd5b600061141c826119d4565b90506000600a67ffffffffffffffff811115611461577f4e487b7100000000000000000000000000000000000000000000000000000000600052604160045260246000fd5b60405190808252806020026020018201604052801561149a57816020015b61148761258b565b81526020019060019003908161147f5790505b5090506000805b835181101561160f5760008482815181106114e5577f4e487b7100000000000000000000000000000000000000000000000000000000600052603260045260246000fd5b60200260200101519050866040516020016115009190612d0e565b60405160208183030381529060405280519060200120816080015160405160200161152b9190612d0e565b6040516020818303038152906040528051906020012014801561155357506001816020015114155b156115fb57848281518110611591577f4e487b7100000000000000000000000000000000000000000000000000000000600052603260045260246000fd5b60200260200101518484815181106115d2577f4e487b7100000000000000000000000000000000000000000000000000000000600052603260045260246000fd5b602002602001018190525082806115e8906133be565b93505060088314156115fa575061160f565b5b508080611607906133be565b9150506114a1565b5060088114611653576040517f08c379a000000000000000000000000000000000000000000000000000000000815260040161164a90612e55565b60405180910390fd5b60005b8181101561180b576000838281518110611699577f4e487b7100000000000000000000000000000000000000000000000000000000600052603260045260246000fd5b60200260200101516000015190506000600180836116b79190613233565b815481106116ee577f4e487b7100000000000000000000000000000000000000000000000000000000600052603260045260246000fd5b9060005260206000209060060201905060008160050160146101000a81548160ff02191690831515021790555060008054906101000a900473ffffffffffffffffffffffffffffffffffffffff1673ffffffffffffffffffffffffffffffffffffffff168160050160009054906101000a900473ffffffffffffffffffffffffffffffffffffffff1673ffffffffffffffffffffffffffffffffffffffff16146117f65760008054906101000a900473ffffffffffffffffffffffffffffffffffffffff168160050160006101000a81548173ffffffffffffffffffffffffffffffffffffffff021916908373ffffffffffffffffffffffffffffffffffffffff1602179055505b50508080611803906133be565b915050611656565b5060006001806003886040516118219190612d0e565b90815260200160405180910390205461183a9190613233565b81548110611871577f4e487b7100000000000000000000000000000000000000000000000000000000600052603260045260246000fd5b90600052602060002090600602019050848160050160006101000a81548173ffffffffffffffffffffffffffffffffffffffff021916908373ffffffffffffffffffffffffffffffffffffffff1602179055506007600460008060009054906101000a900473ffffffffffffffffffffffffffffffffffffffff1673ffffffffffffffffffffffffffffffffffffffff1673ffffffffffffffffffffffffffffffffffffffff16815260200190815260200160002060008282546119359190613183565b925050819055506007600460008773ffffffffffffffffffffffffffffffffffffffff1673ffffffffffffffffffffffffffffffffffffffff168152602001908152602001600020600082825461198c9190613233565b925050819055507f405b3f09172ee9e17f855e6d03dc7b42d82a578bac470342009a41bf4e7006f286866040516119c4929190612dc5565b60405180910390a1505050505050565b60606000600460008473ffffffffffffffffffffffffffffffffffffffff1673ffffffffffffffffffffffffffffffffffffffff1681526020019081526020016000205467ffffffffffffffff811115611a57577f4e487b7100000000000000000000000000000000000000000000000000000000600052604160045260246000fd5b604051908082528060200260200182016040528015611a9057816020015b611a7d61258b565b815260200190600190039081611a755790505b5090506000805b600180549050811015611d4e57600060018281548110611ae0577f4e487b7100000000000000000000000000000000000000000000000000000000600052603260045260246000fd5b90600052602060002090600602016040518060e0016040529081600082015481526020016001820154815260200160028201548152602001600382018054611b279061335b565b80601f0160208091040260200160405190810160405280929190818152602001828054611b539061335b565b8015611ba05780601f10611b7557610100808354040283529160200191611ba0565b820191906000526020600020905b815481529060010190602001808311611b8357829003601f168201915b50505050508152602001600482018054611bb99061335b565b80601f0160208091040260200160405190810160405280929190818152602001828054611be59061335b565b8015611c325780601f10611c0757610100808354040283529160200191611c32565b820191906000526020600020905b815481529060010190602001808311611c1557829003601f168201915b505050505081526020016005820160009054906101000a900473ffffffffffffffffffffffffffffffffffffffff1673ffffffffffffffffffffffffffffffffffffffff1673ffffffffffffffffffffffffffffffffffffffff1681526020016005820160149054906101000a900460ff16151515158152505090508573ffffffffffffffffffffffffffffffffffffffff168160a0015173ffffffffffffffffffffffffffffffffffffffff161415611d3a5780848481518110611d20577f4e487b7100000000000000000000000000000000000000000000000000000000600052603260045260246000fd5b60200260200101819052508280611d36906133be565b9350505b508080611d46906133be565b915050611a97565b508192505050919050565b3373ffffffffffffffffffffffffffffffffffffffff1660018084611d7e9190613233565b81548110611db5577f4e487b7100000000000000000000000000000000000000000000000000000000600052603260045260246000fd5b906000526020600020906006020160050160009054906101000a900473ffffffffffffffffffffffffffffffffffffffff1673ffffffffffffffffffffffffffffffffffffffff1614611e3d576040517f08c379a0000000000000000000000000000000000000000000000000000000008152600401611e3490612df5565b60405180910390fd5b60016005600084815260200190815260200160002060006101000a81548160ff02191690831515021790555080600660008481526020019081526020016000205414611e9c578060066000848152602001908152602001600020819055505b7ffd7c7582a491a0b0b4c0b43239af045334872f547b1f6450922a1e0cffad138e8282604051611ecd929190612f75565b60405180910390a15050565b6002602052806000526040600020600091509050806000015490806001015490806002015490806003018054611f0e9061335b565b80601f0160208091040260200160405190810160405280929190818152602001828054611f3a9061335b565b8015611f875780601f10611f5c57610100808354040283529160200191611f87565b820191906000526020600020905b815481529060010190602001808311611f6a57829003601f168201915b505050505090806004018054611f9c9061335b565b80601f0160208091040260200160405190810160405280929190818152602001828054611fc89061335b565b80156120155780601f10611fea57610100808354040283529160200191612015565b820191906000526020600020905b815481529060010190602001808311611ff857829003601f168201915b5050505050908060050160009054906101000a900473ffffffffffffffffffffffffffffffffffffffff16908060050160149054906101000a900460ff16905087565b60066020528060005260406000206000915090505481565b6060806000805b6001805490508110156120d857600560006001836120959190613183565b815260200190815260200160002060009054906101000a900460ff16156120c55781806120c1906133be565b9250505b80806120d0906133be565b915050612077565b5060008167ffffffffffffffff81111561211b577f4e487b7100000000000000000000000000000000000000000000000000000000600052604160045260246000fd5b60405190808252806020026020018201604052801561215457816020015b61214161258b565b8152602001906001900390816121395790505b50905060008267ffffffffffffffff811115612199577f4e487b7100000000000000000000000000000000000000000000000000000000600052604160045260246000fd5b6040519080825280602002602001820160405280156121c75781602001602082028036833780820191505090505b5090506000805b6001805490508110156124de57600560006001836121ec9190613183565b815260200190815260200160002060009054906101000a900460ff16156124cb5760018181548110612247577f4e487b7100000000000000000000000000000000000000000000000000000000600052603260045260246000fd5b90600052602060002090600602016040518060e001604052908160008201548152602001600182015481526020016002820154815260200160038201805461228e9061335b565b80601f01602080910402602001604051908101604052809291908181526020018280546122ba9061335b565b80156123075780601f106122dc57610100808354040283529160200191612307565b820191906000526020600020905b8154815290600101906020018083116122ea57829003601f168201915b505050505081526020016004820180546123209061335b565b80601f016020809104026020016040519081016040528092919081815260200182805461234c9061335b565b80156123995780601f1061236e57610100808354040283529160200191612399565b820191906000526020600020905b81548152906001019060200180831161237c57829003601f168201915b505050505081526020016005820160009054906101000a900473ffffffffffffffffffffffffffffffffffffffff1673ffffffffffffffffffffffffffffffffffffffff1673ffffffffffffffffffffffffffffffffffffffff1681526020016005820160149054906101000a900460ff16151515158152505084838151811061244c577f4e487b7100000000000000000000000000000000000000000000000000000000600052603260045260246000fd5b6020026020010181905250600660006001836124689190613183565b8152602001908152602001600020548383815181106124b0577f4e487b7100000000000000000000000000000000000000000000000000000000600052603260045260246000fd5b60200260200101818152505081806124c7906133be565b9250505b80806124d6906133be565b9150506121ce565b50828295509550505050509091565b60046020528060005260406000206000915090505481565b8280546125119061335b565b90600052602060002090601f016020900481019282612533576000855561257a565b82601f1061254c57805160ff191683800117855561257a565b8280016001018555821561257a579182015b8281111561257957825182559160200191906001019061255e565b5b50905061258791906125e0565b5090565b6040518060e001604052806000815260200160008152602001600081526020016060815260200160608152602001600073ffffffffffffffffffffffffffffffffffffffff1681526020016000151581525090565b5b808211156125f95760008160009055506001016125e1565b5090565b600061261061260b84613093565b61306e565b90508281526020810184848401111561262857600080fd5b6126338482856132ef565b509392505050565b60008135905061264a81613707565b92915050565b600082601f83011261266157600080fd5b81356126718482602086016125fd565b91505092915050565b6000813590506126898161371e565b92915050565b6000602082840312156126a157600080fd5b60006126af8482850161263b565b91505092915050565b6000602082840312156126ca57600080fd5b600082013567ffffffffffffffff8111156126e457600080fd5b6126f084828501612650565b91505092915050565b6000806040838503121561270c57600080fd5b600083013567ffffffffffffffff81111561272657600080fd5b61273285828601612650565b92505060206127438582860161263b565b9150509250929050565b60006020828403121561275f57600080fd5b600061276d8482850161267a565b91505092915050565b6000806000806080858703121561278c57600080fd5b600061279a8782880161267a565b945050602085013567ffffffffffffffff8111156127b757600080fd5b6127c387828801612650565b935050604085013567ffffffffffffffff8111156127e057600080fd5b6127ec87828801612650565b92505060606127fd8782880161267a565b91505092959194509250565b6000806040838503121561281c57600080fd5b600061282a8582860161267a565b925050602061283b8582860161267a565b9150509250929050565b60006128518383612c1b565b905092915050565b60006128658383612cbe565b60208301905092915050565b61287a816132b9565b82525050565b61288981613267565b82525050565b61289881613267565b82525050565b6128af6128aa82613267565b613407565b82525050565b60006128c0826130f9565b6128ca8185613134565b9350836020820285016128dc856130c4565b8060005b8581101561291857848403895281516128f98582612845565b94506129048361311a565b925060208a019950506001810190506128e0565b50829750879550505050505092915050565b600061293582613104565b61293f8185613145565b935061294a836130d4565b8060005b8381101561297b5781516129628882612859565b975061296d83613127565b92505060018101905061294e565b5085935050505092915050565b61299181613279565b82525050565b6129a081613279565b82525050565b6129b76129b282613285565b613419565b82525050565b60006129c88261310f565b6129d28185613156565b93506129e28185602086016132fe565b6129eb8161352c565b840191505092915050565b6000612a018261310f565b612a0b8185613167565b9350612a1b8185602086016132fe565b612a248161352c565b840191505092915050565b6000612a3a8261310f565b612a448185613178565b9350612a548185602086016132fe565b80840191505092915050565b60008154612a6d8161335b565b612a778186613167565b94506001821660008114612a925760018114612aa457612ad7565b60ff1983168652602086019350612ad7565b612aad856130e4565b60005b83811015612acf57815481890152600182019150602081019050612ab0565b808801955050505b50505092915050565b6000612aed600f83613167565b9150612af88261354a565b602082019050919050565b6000612b10601083613167565b9150612b1b82613573565b602082019050919050565b6000612b33601383613167565b9150612b3e8261359c565b602082019050919050565b6000612b56602a83613167565b9150612b61826135c5565b604082019050919050565b6000612b79601783613167565b9150612b8482613614565b602082019050919050565b6000612b9c601383613167565b9150612ba78261363d565b602082019050919050565b6000612bbf601283613167565b9150612bca82613666565b602082019050919050565b6000612be2601483613167565b9150612bed8261368f565b602082019050919050565b6000612c05602b83613167565b9150612c10826136b8565b604082019050919050565b600060e083016000830151612c336000860182612cbe565b506020830151612c466020860182612cbe565b506040830151612c596040860182612cbe565b5060608301518482036060860152612c7182826129bd565b91505060808301518482036080860152612c8b82826129bd565b91505060a0830151612ca060a0860182612880565b5060c0830151612cb360c0860182612988565b508091505092915050565b612cc7816132af565b82525050565b612cd6816132af565b82525050565b612ced612ce8826132af565b613435565b82525050565b6000612cff828461289e565b60148201915081905092915050565b6000612d1a8284612a2f565b915081905092915050565b6000612d318285612cdc565b602082019150612d4182846129a6565b6020820191508190509392505050565b60006020820190508181036000830152612d6b81846128b5565b905092915050565b60006040820190508181036000830152612d8d81856128b5565b90508181036020830152612da1818461292a565b90509392505050565b6000602082019050612dbf6000830184612997565b92915050565b60006040820190508181036000830152612ddf81856129f6565b9050612dee602083018461288f565b9392505050565b60006020820190508181036000830152612e0e81612ae0565b9050919050565b60006020820190508181036000830152612e2e81612b03565b9050919050565b60006020820190508181036000830152612e4e81612b26565b9050919050565b60006020820190508181036000830152612e6e81612b49565b9050919050565b60006020820190508181036000830152612e8e81612b6c565b9050919050565b60006020820190508181036000830152612eae81612b8f565b9050919050565b60006020820190508181036000830152612ece81612bb2565b9050919050565b60006020820190508181036000830152612eee81612bd5565b9050919050565b60006020820190508181036000830152612f0e81612bf8565b9050919050565b6000602082019050612f2a6000830184612ccd565b92915050565b6000608082019050612f456000830187612ccd565b612f526020830186612871565b612f5f604083018561288f565b612f6c6060830184612ccd565b95945050505050565b6000604082019050612f8a6000830185612ccd565b612f976020830184612ccd565b9392505050565b6000608082019050612fb36000830187612ccd565b612fc06020830186612ccd565b8181036040830152612fd28185612a60565b90508181036060830152612fe68184612a60565b905095945050505050565b600060e082019050613006600083018a612ccd565b6130136020830189612ccd565b6130206040830188612ccd565b818103606083015261303281876129f6565b9050818103608083015261304681866129f6565b905061305560a083018561288f565b61306260c0830184612997565b98975050505050505050565b6000613078613089565b9050613084828261338d565b919050565b6000604051905090565b600067ffffffffffffffff8211156130ae576130ad6134fd565b5b6130b78261352c565b9050602081019050919050565b6000819050602082019050919050565b6000819050602082019050919050565b60008190508160005260206000209050919050565b600081519050919050565b600081519050919050565b600081519050919050565b6000602082019050919050565b6000602082019050919050565b600082825260208201905092915050565b600082825260208201905092915050565b600082825260208201905092915050565b600082825260208201905092915050565b600081905092915050565b600061318e826132af565b9150613199836132af565b9250827fffffffffffffffffffffffffffffffffffffffffffffffffffffffffffffffff038211156131ce576131cd613470565b5b828201905092915050565b60006131e4826132af565b91506131ef836132af565b9250817fffffffffffffffffffffffffffffffffffffffffffffffffffffffffffffffff048311821515161561322857613227613470565b5b828202905092915050565b600061323e826132af565b9150613249836132af565b92508282101561325c5761325b613470565b5b828203905092915050565b60006132728261328f565b9050919050565b60008115159050919050565b6000819050919050565b600073ffffffffffffffffffffffffffffffffffffffff82169050919050565b6000819050919050565b60006132c4826132cb565b9050919050565b60006132d6826132dd565b9050919050565b60006132e88261328f565b9050919050565b82818337600083830152505050565b60005b8381101561331c578082015181840152602081019050613301565b8381111561332b576000848401525b50505050565b600061333c826132af565b915060008214156133505761334f613470565b5b600182039050919050565b6000600282049050600182168061337357607f821691505b60208210811415613387576133866134ce565b5b50919050565b6133968261352c565b810181811067ffffffffffffffff821117156133b5576133b46134fd565b5b80604052505050565b60006133c9826132af565b91507fffffffffffffffffffffffffffffffffffffffffffffffffffffffffffffffff8214156133fc576133fb613470565b5b600182019050919050565b600061341282613423565b9050919050565b6000819050919050565b600061342e8261353d565b9050919050565b6000819050919050565b600061344a826132af565b9150613455836132af565b9250826134655761346461349f565b5b828206905092915050565b7f4e487b7100000000000000000000000000000000000000000000000000000000600052601160045260246000fd5b7f4e487b7100000000000000000000000000000000000000000000000000000000600052601260045260246000fd5b7f4e487b7100000000000000000000000000000000000000000000000000000000600052602260045260246000fd5b7f4e487b7100000000000000000000000000000000000000000000000000000000600052604160045260246000fd5b6000601f19601f8301169050919050565b60008160601b9050919050565b7f4f776e6572206f6e6c792073656c6c0000000000000000000000000000000000600082015250565b7f4e6f7420656e6f756768206d6f6e657900000000000000000000000000000000600082015250565b7f43616c6c6572206973206e6f74206f776e657200000000000000000000000000600082015250565b7f55736572207761732061626c6520746f2075706772616465207769746820657160008201527f75616c2038204e46547300000000000000000000000000000000000000000000602082015250565b7f4e6f7420656e6f7567682076616c696420706965636573000000000000000000600082015250565b7f4e6f7420616c726561647920666f722062757900000000000000000000000000600082015250565b7f43616e27742062757920796f7572206f776e0000000000000000000000000000600082015250565b7f4e6f206d6f726520737061726520736861726473000000000000000000000000600082015250565b7f55736572207761732061626c6520746f2075706772616465207769746820657160008201527f75616c203130204e465473000000000000000000000000000000000000000000602082015250565b61371081613267565b811461371b57600080fd5b50565b613727816132af565b811461373257600080fd5b5056fea26469706673582212202e10ed273e31dc85249be86382f0ba5a8446160bcb806ac82b87d4e2336d80bd64736f6c63430008040033",
  "linkReferences": {},
  "deployedLinkReferences": {}
}