{
  "_format": "hh-sol-artifact-1",
  "contractName": "CollectionQuiz",
  "sourceName": "contracts/Quiz.sol",
  "abi": [
    {
      "inputs": [],
      "stateMutability": "nonpayable",
      "type": "constructor"
    },
    {
      "anonymous": false,
      "inputs": [
        {
          "indexed": true,
          "internalType": "address",
          "name": "_caller",
          "type": "address"
        },
        {
          "indexed": false,
          "internalType": "string",
          "name": "_location",
          "type": "string"
        },
        {
          "indexed": false,
          "internalType": "uint256",
          "name": "_amount",
          "type": "uint256"
        },
        {
          "components": [
            {
              "internalType": "uint256",
              "name": "id",
              "type": "uint256"
            },
            {
              "internalType": "string",
              "name": "location",
              "type": "string"
            },
            {
              "internalType": "string",
              "name": "URI",
              "type": "string"
            },
            {
              "internalType": "uint256",
              "name": "correct",
              "type": "uint256"
            }
          ],
          "indexed": false,
          "internalType": "struct CollectionQuiz.Quiz[]",
          "name": "_quizzes",
          "type": "tuple[]"
        }
      ],
      "name": "GetArrayQuizForLocationEvent",
      "type": "event"
    },
    {
      "anonymous": false,
      "inputs": [
        {
          "indexed": false,
          "internalType": "uint256",
          "name": "_id",
          "type": "uint256"
        },
        {
          "indexed": false,
          "internalType": "string",
          "name": "_location",
          "type": "string"
        },
        {
          "indexed": false,
          "internalType": "string",
          "name": "_URI",
          "type": "string"
        },
        {
          "indexed": false,
          "internalType": "uint256",
          "name": "_correct",
          "type": "uint256"
        }
      ],
      "name": "createNewQuiz",
      "type": "event"
    },
    {
      "anonymous": false,
      "inputs": [
        {
          "indexed": false,
          "internalType": "uint256",
          "name": "_id",
          "type": "uint256"
        },
        {
          "indexed": false,
          "internalType": "string",
          "name": "_location",
          "type": "string"
        },
        {
          "indexed": false,
          "internalType": "string",
          "name": "_URI",
          "type": "string"
        },
        {
          "indexed": false,
          "internalType": "uint256",
          "name": "_correct",
          "type": "uint256"
        }
      ],
      "name": "updatedNewQuiz",
      "type": "event"
    },
    {
      "inputs": [
        {
          "internalType": "string",
          "name": "_location",
          "type": "string"
        },
        {
          "internalType": "string",
          "name": "_URI",
          "type": "string"
        },
        {
          "internalType": "uint32",
          "name": "_correct",
          "type": "uint32"
        }
      ],
      "name": "createQuiz",
      "outputs": [],
      "stateMutability": "nonpayable",
      "type": "function"
    },
    {
      "inputs": [],
      "name": "getAll",
      "outputs": [
        {
          "components": [
            {
              "internalType": "uint256",
              "name": "id",
              "type": "uint256"
            },
            {
              "internalType": "string",
              "name": "location",
              "type": "string"
            },
            {
              "internalType": "string",
              "name": "URI",
              "type": "string"
            },
            {
              "internalType": "uint256",
              "name": "correct",
              "type": "uint256"
            }
          ],
          "internalType": "struct CollectionQuiz.Quiz[]",
          "name": "",
          "type": "tuple[]"
        }
      ],
      "stateMutability": "view",
      "type": "function"
    },
    {
      "inputs": [
        {
          "internalType": "string",
          "name": "_location",
          "type": "string"
        },
        {
          "internalType": "uint256",
          "name": "_amount",
          "type": "uint256"
        }
      ],
      "name": "getAndEmitArrayQuizForLocation",
      "outputs": [],
      "stateMutability": "nonpayable",
      "type": "function"
    },
    {
      "inputs": [
        {
          "internalType": "string",
          "name": "_location",
          "type": "string"
        },
        {
          "internalType": "uint256",
          "name": "_amount",
          "type": "uint256"
        }
      ],
      "name": "getArrayQuizForLocation",
      "outputs": [
        {
          "components": [
            {
              "internalType": "uint256",
              "name": "id",
              "type": "uint256"
            },
            {
              "internalType": "string",
              "name": "location",
              "type": "string"
            },
            {
              "internalType": "string",
              "name": "URI",
              "type": "string"
            },
            {
              "internalType": "uint256",
              "name": "correct",
              "type": "uint256"
            }
          ],
          "internalType": "struct CollectionQuiz.Quiz[]",
          "name": "",
          "type": "tuple[]"
        }
      ],
      "stateMutability": "view",
      "type": "function"
    },
    {
      "inputs": [
        {
          "internalType": "string",
          "name": "location",
          "type": "string"
        }
      ],
      "name": "getLocationCount",
      "outputs": [
        {
          "internalType": "uint256",
          "name": "",
          "type": "uint256"
        }
      ],
      "stateMutability": "view",
      "type": "function"
    },
    {
      "inputs": [],
      "name": "getQuizLength",
      "outputs": [
        {
          "internalType": "uint256",
          "name": "",
          "type": "uint256"
        }
      ],
      "stateMutability": "view",
      "type": "function"
    },
    {
      "inputs": [],
      "name": "getQuizs",
      "outputs": [
        {
          "components": [
            {
              "internalType": "uint256",
              "name": "id",
              "type": "uint256"
            },
            {
              "internalType": "string",
              "name": "location",
              "type": "string"
            },
            {
              "internalType": "string",
              "name": "URI",
              "type": "string"
            },
            {
              "internalType": "uint256",
              "name": "correct",
              "type": "uint256"
            }
          ],
          "internalType": "struct CollectionQuiz.Quiz[]",
          "name": "arr",
          "type": "tuple[]"
        }
      ],
      "stateMutability": "view",
      "type": "function"
    },
    {
      "inputs": [
        {
          "components": [
            {
              "internalType": "uint256",
              "name": "id",
              "type": "uint256"
            },
            {
              "internalType": "string",
              "name": "location",
              "type": "string"
            },
            {
              "internalType": "string",
              "name": "URI",
              "type": "string"
            },
            {
              "internalType": "uint256",
              "name": "correct",
              "type": "uint256"
            }
          ],
          "internalType": "struct CollectionQuiz.Quiz[]",
          "name": "quizArr",
          "type": "tuple[]"
        }
      ],
      "name": "setQuizs",
      "outputs": [],
      "stateMutability": "nonpayable",
      "type": "function"
    },
    {
      "inputs": [
        {
          "internalType": "uint256",
          "name": "_id",
          "type": "uint256"
        },
        {
          "internalType": "string",
          "name": "_location",
          "type": "string"
        },
        {
          "internalType": "string",
          "name": "_URI",
          "type": "string"
        },
        {
          "internalType": "uint256",
          "name": "_correct",
          "type": "uint256"
        }
      ],
      "name": "updateQuiz",
      "outputs": [],
      "stateMutability": "nonpayable",
      "type": "function"
    }
  ],
  "bytecode": "0x6080604052600060015534801561001557600080fd5b50336000806101000a81548173ffffffffffffffffffffffffffffffffffffffff021916908373ffffffffffffffffffffffffffffffffffffffff16021790555061217e806100656000396000f3fe608060405234801561001057600080fd5b50600436106100935760003560e01c806353ed51431161006657806353ed51431461011e578063d95de1c21461013c578063e1c7e00b14610158578063ef032e6614610176578063f7dcc1d31461019257610093565b80632a94a6e9146100985780632af9d16c146100b4578063503b4e14146100d057806350955db414610100575b600080fd5b6100b260048036038101906100ad9190611625565b6101c2565b005b6100ce60048036038101906100c991906116a4565b6103ea565b005b6100ea60048036038101906100e591906115e4565b61046f565b6040516100f79190611bb1565b60405180910390f35b610108610497565b6040516101159190611aca565b60405180910390f35b61012661062e565b6040516101339190611aca565b60405180910390f35b610156600480360381019061015191906115a3565b6107c5565b005b6101606108c2565b60405161016d9190611bb1565b60405180910390f35b610190600480360381019061018b91906116f8565b6108cf565b005b6101ac60048036038101906101a791906116a4565b610b4b565b6040516101b99190611aca565b60405180910390f35b60008054906101000a900473ffffffffffffffffffffffffffffffffffffffff1673ffffffffffffffffffffffffffffffffffffffff163373ffffffffffffffffffffffffffffffffffffffff1614610250576040517f08c379a000000000000000000000000000000000000000000000000000000000815260040161024790611b51565b60405180910390fd5b60008351118015610262575060008251115b8015610275575060008163ffffffff1614155b6102b4576040517f08c379a00000000000000000000000000000000000000000000000000000000081526004016102ab90611b31565b60405180910390fd5b600160008154809291906102c790611eff565b91905055506002604051806080016040528060015481526020018581526020018481526020018363ffffffff1681525090806001815401808255809150506001900390600052602060002090600402016000909190919091506000820151816000015560208201518160010190805190602001906103469291906112f2565b5060408201518160020190805190602001906103639291906112f2565b5060608201518160030155505060016003846040516103829190611a70565b9081526020016040518091039020600082825461039f9190611d7a565b925050819055507fb5358e3a28bb3136fe16117b4763ee63c9c50cfbb46de8421c5253e9fdd89aa86001548484846040516103dd9493929190611c1f565b60405180910390a1505050565b60006103f68383610b4b565b905060008054906101000a900473ffffffffffffffffffffffffffffffffffffffff1673ffffffffffffffffffffffffffffffffffffffff167fe286a414eaa62e3d1646fa7b79625ffcef03d3ec0dab9802513c7af96883817e84848460405161046293929190611aec565b60405180910390a2505050565b60006003826040516104819190611a70565b9081526020016040518091039020549050919050565b60606002805480602002602001604051908101604052809291908181526020016000905b828210156106255783829060005260206000209060040201604051806080016040529081600082015481526020016001820180546104f890611e9c565b80601f016020809104026020016040519081016040528092919081815260200182805461052490611e9c565b80156105715780601f1061054657610100808354040283529160200191610571565b820191906000526020600020905b81548152906001019060200180831161055457829003601f168201915b5050505050815260200160028201805461058a90611e9c565b80601f01602080910402602001604051908101604052809291908181526020018280546105b690611e9c565b80156106035780601f106105d857610100808354040283529160200191610603565b820191906000526020600020905b8154815290600101906020018083116105e657829003601f168201915b50505050508152602001600382015481525050815260200190600101906104bb565b50505050905090565b60606002805480602002602001604051908101604052809291908181526020016000905b828210156107bc57838290600052602060002090600402016040518060800160405290816000820154815260200160018201805461068f90611e9c565b80601f01602080910402602001604051908101604052809291908181526020018280546106bb90611e9c565b80156107085780601f106106dd57610100808354040283529160200191610708565b820191906000526020600020905b8154815290600101906020018083116106eb57829003601f168201915b5050505050815260200160028201805461072190611e9c565b80601f016020809104026020016040519081016040528092919081815260200182805461074d90611e9c565b801561079a5780601f1061076f5761010080835404028352916020019161079a565b820191906000526020600020905b81548152906001019060200180831161077d57829003601f168201915b5050505050815260200160038201548152505081526020019060010190610652565b50505050905090565b60005b81518110156108be5781818151811061080a577f4e487b7100000000000000000000000000000000000000000000000000000000600052603260045260246000fd5b60200260200101516002828154811061084c577f4e487b7100000000000000000000000000000000000000000000000000000000600052603260045260246000fd5b90600052602060002090600402016000820151816000015560208201518160010190805190602001906108809291906112f2565b50604082015181600201908051906020019061089d9291906112f2565b506060820151816003015590505080806108b690611eff565b9150506107c8565b5050565b6000600280549050905090565b60008054906101000a900473ffffffffffffffffffffffffffffffffffffffff1673ffffffffffffffffffffffffffffffffffffffff163373ffffffffffffffffffffffffffffffffffffffff161461095d576040517f08c379a000000000000000000000000000000000000000000000000000000000815260040161095490611b51565b60405180910390fd5b600154841115801561096f5750600084115b6109ae576040517f08c379a00000000000000000000000000000000000000000000000000000000081526004016109a590611b91565b60405180910390fd5b600060026001866109bf9190611dd0565b815481106109f6577f4e487b7100000000000000000000000000000000000000000000000000000000600052603260045260246000fd5b9060005260206000209060040201905083604051602001610a179190611a70565b6040516020818303038152906040528051906020012081600101604051602001610a419190611a87565b6040516020818303038152906040528051906020012014610ae5576001600382600101604051610a719190611a87565b90815260200160405180910390206000828254610a8e9190611dd0565b925050819055506001600385604051610aa79190611a70565b90815260200160405180910390206000828254610ac49190611d7a565b9250508190555083816001019080519060200190610ae39291906112f2565b505b82816002019080519060200190610afd9291906112f2565b508181600301819055507f185cd80a1fa23be1dad00a4e99be4c3e0554b4c5de303f29fda35fd30ab41f9a85858585604051610b3c9493929190611bcc565b60405180910390a15050505050565b6060600383604051610b5d9190611a70565b908152602001604051809103902054821115610bae576040517f08c379a0000000000000000000000000000000000000000000000000000000008152600401610ba590611b71565b60405180910390fd5b6000600384604051610bc09190611a70565b908152602001604051809103902054905060008167ffffffffffffffff811115610c13577f4e487b7100000000000000000000000000000000000000000000000000000000600052604160045260246000fd5b604051908082528060200260200182016040528015610c415781602001602082028036833780820191505090505b5090506000805b600280549050811015610ea957600060028281548110610c91577f4e487b7100000000000000000000000000000000000000000000000000000000600052603260045260246000fd5b906000526020600020906004020160405180608001604052908160008201548152602001600182018054610cc490611e9c565b80601f0160208091040260200160405190810160405280929190818152602001828054610cf090611e9c565b8015610d3d5780601f10610d1257610100808354040283529160200191610d3d565b820191906000526020600020905b815481529060010190602001808311610d2057829003601f168201915b50505050508152602001600282018054610d5690611e9c565b80601f0160208091040260200160405190810160405280929190818152602001828054610d8290611e9c565b8015610dcf5780601f10610da457610100808354040283529160200191610dcf565b820191906000526020600020905b815481529060010190602001808311610db257829003601f168201915b50505050508152602001600382015481525050905087604051602001610df59190611a70565b604051602081830303815290604052805190602001208160200151604051602001610e209190611a70565b604051602081830303815290604052805190602001201415610e95578060000151848481518110610e7a577f4e487b7100000000000000000000000000000000000000000000000000000000600052603260045260246000fd5b6020026020010181815250508280610e9190611eff565b9350505b508080610ea190611eff565b915050610c48565b506000600184610eb99190611dd0565b90505b600081111561102c576000600182610ed49190611d7a565b4283604051602001610ee7929190611a9e565b6040516020818303038152906040528051906020012060001c610f0a9190611f52565b9050838181518110610f45577f4e487b7100000000000000000000000000000000000000000000000000000000600052603260045260246000fd5b6020026020010151848381518110610f86577f4e487b7100000000000000000000000000000000000000000000000000000000600052603260045260246000fd5b6020026020010151858481518110610fc7577f4e487b7100000000000000000000000000000000000000000000000000000000600052603260045260246000fd5b60200260200101868481518110611007577f4e487b7100000000000000000000000000000000000000000000000000000000600052603260045260246000fd5b602002602001018281525082815250505050808061102490611e72565b915050610ebc565b5060008567ffffffffffffffff81111561106f577f4e487b7100000000000000000000000000000000000000000000000000000000600052604160045260246000fd5b6040519080825280602002602001820160405280156110a857816020015b611095611378565b81526020019060019003908161108d5790505b50905060005b868110156112e457600260018583815181106110f3577f4e487b7100000000000000000000000000000000000000000000000000000000600052603260045260246000fd5b60200260200101516111059190611dd0565b8154811061113c577f4e487b7100000000000000000000000000000000000000000000000000000000600052603260045260246000fd5b90600052602060002090600402016040518060800160405290816000820154815260200160018201805461116f90611e9c565b80601f016020809104026020016040519081016040528092919081815260200182805461119b90611e9c565b80156111e85780601f106111bd576101008083540402835291602001916111e8565b820191906000526020600020905b8154815290600101906020018083116111cb57829003601f168201915b5050505050815260200160028201805461120190611e9c565b80601f016020809104026020016040519081016040528092919081815260200182805461122d90611e9c565b801561127a5780601f1061124f5761010080835404028352916020019161127a565b820191906000526020600020905b81548152906001019060200180831161125d57829003601f168201915b505050505081526020016003820154815250508282815181106112c6577f4e487b7100000000000000000000000000000000000000000000000000000000600052603260045260246000fd5b602002602001018190525080806112dc90611eff565b9150506110ae565b508094505050505092915050565b8280546112fe90611e9c565b90600052602060002090601f0160209004810192826113205760008555611367565b82601f1061133957805160ff1916838001178555611367565b82800160010185558215611367579182015b8281111561136657825182559160200191906001019061134b565b5b50905061137491906113a0565b5090565b6040518060800160405280600081526020016060815260200160608152602001600081525090565b5b808211156113b95760008160009055506001016113a1565b5090565b60006113d06113cb84611c97565b611c72565b905080838252602082019050828560208602820111156113ef57600080fd5b60005b8581101561143957813567ffffffffffffffff81111561141157600080fd5b80860161141e89826114d5565b855260208501945060208401935050506001810190506113f2565b5050509392505050565b600061145661145184611cc3565b611c72565b90508281526020810184848401111561146e57600080fd5b611479848285611e30565b509392505050565b600082601f83011261149257600080fd5b81356114a28482602086016113bd565b91505092915050565b600082601f8301126114bc57600080fd5b81356114cc848260208601611443565b91505092915050565b6000608082840312156114e757600080fd5b6114f16080611c72565b9050600061150184828501611579565b600083015250602082013567ffffffffffffffff81111561152157600080fd5b61152d848285016114ab565b602083015250604082013567ffffffffffffffff81111561154d57600080fd5b611559848285016114ab565b604083015250606061156d84828501611579565b60608301525092915050565b6000813590506115888161211a565b92915050565b60008135905061159d81612131565b92915050565b6000602082840312156115b557600080fd5b600082013567ffffffffffffffff8111156115cf57600080fd5b6115db84828501611481565b91505092915050565b6000602082840312156115f657600080fd5b600082013567ffffffffffffffff81111561161057600080fd5b61161c848285016114ab565b91505092915050565b60008060006060848603121561163a57600080fd5b600084013567ffffffffffffffff81111561165457600080fd5b611660868287016114ab565b935050602084013567ffffffffffffffff81111561167d57600080fd5b611689868287016114ab565b925050604061169a8682870161158e565b9150509250925092565b600080604083850312156116b757600080fd5b600083013567ffffffffffffffff8111156116d157600080fd5b6116dd858286016114ab565b92505060206116ee85828601611579565b9150509250929050565b6000806000806080858703121561170e57600080fd5b600061171c87828801611579565b945050602085013567ffffffffffffffff81111561173957600080fd5b611745878288016114ab565b935050604085013567ffffffffffffffff81111561176257600080fd5b61176e878288016114ab565b925050606061177f87828801611579565b91505092959194509250565b600061179783836119c2565b905092915050565b60006117aa82611d19565b6117b48185611d3c565b9350836020820285016117c685611cf4565b8060005b8581101561180257848403895281516117e3858261178b565b94506117ee83611d2f565b925060208a019950506001810190506117ca565b50829750879550505050505092915050565b600061181f82611d24565b6118298185611d4d565b9350611839818560208601611e3f565b6118428161203f565b840191505092915050565b600061185882611d24565b6118628185611d5e565b9350611872818560208601611e3f565b61187b8161203f565b840191505092915050565b600061189182611d24565b61189b8185611d6f565b93506118ab818560208601611e3f565b80840191505092915050565b600081546118c481611e9c565b6118ce8186611d6f565b945060018216600081146118e957600181146118fa5761192d565b60ff1983168652818601935061192d565b61190385611d04565b60005b8381101561192557815481890152600182019150602081019050611906565b838801955050505b50505092915050565b6000611943603483611d5e565b915061194e82612050565b604082019050919050565b6000611966601383611d5e565b91506119718261209f565b602082019050919050565b6000611989601483611d5e565b9150611994826120c8565b602082019050919050565b60006119ac601183611d5e565b91506119b7826120f1565b602082019050919050565b60006080830160008301516119da6000860182611a2c565b50602083015184820360208601526119f28282611814565b91505060408301518482036040860152611a0c8282611814565b9150506060830151611a216060860182611a2c565b508091505092915050565b611a3581611e04565b82525050565b611a4481611e04565b82525050565b611a5b611a5682611e04565b611f48565b82525050565b611a6a81611e1e565b82525050565b6000611a7c8284611886565b915081905092915050565b6000611a9382846118b7565b915081905092915050565b6000611aaa8285611a4a565b602082019150611aba8284611a4a565b6020820191508190509392505050565b60006020820190508181036000830152611ae4818461179f565b905092915050565b60006060820190508181036000830152611b06818661184d565b9050611b156020830185611a3b565b8181036040830152611b27818461179f565b9050949350505050565b60006020820190508181036000830152611b4a81611936565b9050919050565b60006020820190508181036000830152611b6a81611959565b9050919050565b60006020820190508181036000830152611b8a8161197c565b9050919050565b60006020820190508181036000830152611baa8161199f565b9050919050565b6000602082019050611bc66000830184611a3b565b92915050565b6000608082019050611be16000830187611a3b565b8181036020830152611bf3818661184d565b90508181036040830152611c07818561184d565b9050611c166060830184611a3b565b95945050505050565b6000608082019050611c346000830187611a3b565b8181036020830152611c46818661184d565b90508181036040830152611c5a818561184d565b9050611c696060830184611a61565b95945050505050565b6000611c7c611c8d565b9050611c888282611ece565b919050565b6000604051905090565b600067ffffffffffffffff821115611cb257611cb1612010565b5b602082029050602081019050919050565b600067ffffffffffffffff821115611cde57611cdd612010565b5b611ce78261203f565b9050602081019050919050565b6000819050602082019050919050565b60008190508160005260206000209050919050565b600081519050919050565b600081519050919050565b6000602082019050919050565b600082825260208201905092915050565b600082825260208201905092915050565b600082825260208201905092915050565b600081905092915050565b6000611d8582611e04565b9150611d9083611e04565b9250827fffffffffffffffffffffffffffffffffffffffffffffffffffffffffffffffff03821115611dc557611dc4611f83565b5b828201905092915050565b6000611ddb82611e04565b9150611de683611e04565b925082821015611df957611df8611f83565b5b828203905092915050565b6000819050919050565b600063ffffffff82169050919050565b6000611e2982611e0e565b9050919050565b82818337600083830152505050565b60005b83811015611e5d578082015181840152602081019050611e42565b83811115611e6c576000848401525b50505050565b6000611e7d82611e04565b91506000821415611e9157611e90611f83565b5b600182039050919050565b60006002820490506001821680611eb457607f821691505b60208210811415611ec857611ec7611fe1565b5b50919050565b611ed78261203f565b810181811067ffffffffffffffff82111715611ef657611ef5612010565b5b80604052505050565b6000611f0a82611e04565b91507fffffffffffffffffffffffffffffffffffffffffffffffffffffffffffffffff821415611f3d57611f3c611f83565b5b600182019050919050565b6000819050919050565b6000611f5d82611e04565b9150611f6883611e04565b925082611f7857611f77611fb2565b5b828206905092915050565b7f4e487b7100000000000000000000000000000000000000000000000000000000600052601160045260246000fd5b7f4e487b7100000000000000000000000000000000000000000000000000000000600052601260045260246000fd5b7f4e487b7100000000000000000000000000000000000000000000000000000000600052602260045260246000fd5b7f4e487b7100000000000000000000000000000000000000000000000000000000600052604160045260246000fd5b6000601f19601f8301169050919050565b7f56616c7565732063616e6e6f7420626520656d70747920616e64205f636f727260008201527f656374206d757374206265206e6f6e2d7a65726f000000000000000000000000602082015250565b7f43616c6c6572206973206e6f74206f776e657200000000000000000000000000600082015250565b7f4e6f7420656e6f756768207175657374696f6e73000000000000000000000000600082015250565b7f494420646f6573206e6f74206578697374000000000000000000000000000000600082015250565b61212381611e04565b811461212e57600080fd5b50565b61213a81611e0e565b811461214557600080fd5b5056fea264697066735822122055fea17ccbcc1124db33a0c34e5fee387d51ac1d241467739c96d8b64a87ed7564736f6c63430008040033",
  "linkReferences": {},
  "deployedLinkReferences": {}
}